S0250000537072696E7431305F46756E63696F6E616C69646164655F4C697672652E73726563C8
S11300000C9454010C94DC020C9471010C94710155
S11300100C9471010C94B8010C9471010C9471014D
S11300200C9471010C9471010C9425020C947101CF
S11300300C9471010C9471010C94E5010C94710100
S11300400C9471010C9471010C9485010C94710150
S11300500C9471010C9478020C9471010C9471014C
S11300600C9471010C94710105000000000005005E
S1130070005F000005000700070005147F147F14CB
S113008005242A7F2A12052313086462053649567B
S1130090205005080703000005001C22410005004C
S11300A041221C000514083E08140508083E0808EF
S11300B00500B07000000508080808080500606025
S11300C00000052010080402053E5149453E050084
S11300D0427F4000057249494946052141494D3353
S11300E0051814127F10052745454539053C4A4932
S11300F04931054121110907053649494936054663
S11301004949291E05000014000005004034000080
S11301100508142241000514141414140541221472
S11301200800050201590906053E415D594E057C4A
S11301301211127C057F49494936053E414141224D
S1130140057F4141413E057F49494949057F0909E8
S11301500909053E41415173057F0808087F0500E0
S1130160417F4100052040413F01057F08142241A1
S1130170057F40404040057F020C027F057F040854
S1130180107F053E4141413E057F09090906053EB0
S11301904151215E057F09192946052649494932FD
S11301A00501017F0101053F4040403F051F2040FC
S11301B0201F053F4038403F0563140814630503BE
S11301C00478040305615149454305007F4141001A
S11301D0050204081020050041417F0005040201C6
S11301E0020405404040404005070B000000052084
S11301F054547840057F28444438053844444428FE
S113020005384444287F0538545454180500087EA2
S113021009020518A4A49C78057F08040478050045
S1130220447D4000052040403D00057F10284400E7
S11302300500417F4000057C04780478057C0804AF
S1130240047805384444443805FC18242418051857
S1130250242418FC057C0804040805485454542438
S11302600504043F4424053C4040207C051C2040F8
S1130270201C053C4030403C054428102844054CD3
S11302809090907C054464544C4405000836410029
S1130290050000770000050041360800050402044B
S11302A0080405007F417F0011241FBECFEFD8E072
S11302B0DEBFCDBF11E0A0E0B1E0EEECF0E202C0A1
S11302C005900D92AE33B107D9F725E0AEE3B1E066
S11302D001C01D92AF38B207E1F70E94A0060C944A
S11302E065100C9400009093C5008093C40088E9C5
S11302F08093C1008EE08093C20008959091C00065
S113030095FFFCCF8093C60008951F920F920FB6FD
S11303100F9211242F933F934F935F936F937F9387
S11303208F939F93AF93BF93EF93FF938091C600F6
S11303308C3621F410924B0110924A01843639F420
S113034084E090E00E94341090E00E947E01FF91CE
S1130350EF91BF91AF919F918F917F916F915F9139
S11303604F913F912F910F900FBE0F901F901895B2
S11303701F920F920FB60F9211248F939F934C9953
S11303800CC08091820190918301883C910528F4EE
S1130390019690938301809382014D990FC08091BF
S11303A0820190918301019790938301809382014C
S11303B0892B21F410928301109282019F918F91D5
S11303C00F900FBE0F901F9018951F920F920FB6AB
S11303D00F9211242F933F935F936F937F938F9387
S11303E09F93AF93BF9320917601309177012F5F54
S11303F03F4F3093770120937601C90165E070E0A7
S11304000E94520F892B31F481E090E090934501D2
S113041080934401C9016CE271E00E94520F892B60
S113042031F481E090E09093430180934201BF91C5
S1130430AF919F918F917F916F915F913F912F9198
S11304400F900FBE0F901F9018951F920F920FB62A
S11304500F9211242F933F935F936F937F938F9306
S11304609F93AF93BF93EF93FF938091810086FF97
S113047009C08091860090918700909365018093D4
S1130480640114C0809186009091870020916401DA
S113049030916501821B930B82959295907F9827EA
S11304A0807F98279093630180936201E1E8F0E0F4
S11304B0908180E489278083809162019091630117
S11304C06AE370E00E94520F7093610160936001CF
S11304D0FF91EF91BF91AF919F918F917F916F9118
S11304E05F913F912F910F900FBE0F901F90189521
S11304F01F920F920FB60F9211248F939F93AF9375
S1130500BF9380913E0190913F01019789F480E46B
S113051080937C008091780090917900A0E0B0E015
S113052080936A0190936B01A0936C01B0936D0169
S113053080913E0190913F01029789F481E4809378
S11305407C008091780090917900A0E0B0E08093E5
S11305505C0190935D01A0935E01B0935F01809173
S11305603E0190913F010397A9F482E480937C00BB
S11305708091780090917900A0E0B0E080935001E0
S113058090935101A0935201B093530110923F01F3
S113059010923E0180913E0190913F01019690930B
S11305A03F0180933E01BF91AF919F918F910F9036
S11305B00FBE0F901F9018951F920F920FB60F92B7
S11305C011244F925F926F927F928F929F92AF927B
S11305D0BF92CF92DF92EF92FF920F931F932F93CC
S11305E03F934F935F936F937F938F939F93AF93B7
S11305F0BF93CF93DF93EF93FF938091700190911A
S11306007101059709F047C08091760190917701B7
S113061020917401309175016C01C21AD30AD092F1
S11306207301C092720190937501809374010D2C33
S1130630000CEE08FF0860EE73E984E090E0A70187
S113064096010E94880F30936F0120936E01609190
S113065082017091830180E090E00E94E00D24E12A
S11306603EE54DE054E40E94E50E4B015C01C701F8
S1130670B6010E94E20D9B01AC01C501B4010E94C8
S1130680FC0C0E94AA0D7093850160938401109262
S11306907101109270018091700190917101019625
S11306A09093710180937001609182017091830134
S11306B080E090E00E94E00D26E53EE049E450E44D
S11306C00E94E50E6B017C0120917A0130917B013F
S11306D040917C0150917D0160917E0170917F0178
S11306E080918001909181010E941D0EA7019601C5
S11306F00E948B0C0E94730D20937A0130937B012E
S113070040937C0150937D0160937E0170937F013F
S113071080938001909381010F2EF0EAAF2EF02D8B
S11307200F2EF6E8BF2EF02DCC24C394D12CE12C4F
S1130730F12C00E010E00E94B40F20937801309374
S11307407901C0916001D0916101CC3281E0D80778
S11307500CF580918401909185014597DCF02091FE
S11307606A0130916B0140916C0150916D01AFEFC2
S1130770B0E00E94A70F26EF37E240E050E00E946D
S1130780660F20936601309367014093680150938C
S113079069011AC020916A0130916B0140916C018A
S11307A050916D01AFEFB0E00E94A70F2FEF33E03F
S11307B040E050E00E94660F209366013093670189
S11307C0409368015093690120915C0130915D016F
S11307D040915E0150915F01A4E6B0E00E94A70F32
S11307E02FEF33E040E050E00E94660FCA01B901E8
S11307F00E94E00D4B015C01609358017093590114
S113080080935A0190935B01609150017091510162
S113081080915201909153010E94E00D6B017C0183
S11308202EE037E64CE950E40E94E50E2B013C0132
S113083021E233E240EA5BE3C701B6010E94E50E20
S11308409B01AC0160E070E080EA90E40E948A0CB5
S11308509B01AC01C301B2010E94FC0C60935401E2
S113086070935501809356019093570120E030E036
S113087048EC52E40E948A0C26ED3BE346E250E445
S11308800E94E50E6B017C0160934C0170934D0155
S113089080934E0190934F010E94AA0D072E000CE5
S11308A0880B990B0E94E20D9B01AC01C701B601B4
S11308B00E948A0C20E030E0A9010E94E00E882307
S11308C084F020E030E040E85FE3C701B6010E9415
S11308D08B0C60934C0170934D0180934E01909367
S11308E04F0160914A0170914B01072E000C880B57
S11308F0990B0E94E20DC0904C01D0904D01E09004
S11309004E01F0904F01A70196010E94F70C882335
S113091044F4C701B6010E94B10D70934B0160937A
S11309204A0120E030E0A901C701B6010E94F70C9A
S1130930882344F410924C0110924D0110924E0100
S113094010924F012DEC3CEC4CE850E4C501B4018D
S11309500E94E50E6093460170934701809348011D
S113096090934901C436D10524F488B1886088B9CC
S113097001C018B8FF91EF91DF91CF91BF91AF9172
S11309809F918F917F916F915F914F913F912F91A3
S11309901F910F91FF90EF90DF90CF90BF90AF9099
S11309A09F908F907F906F905F904F900F900FBEAD
S11309B00F901F901895CF93DF93FC018081918154
S11309C0892B09F464C080914001909141018230E7
S11309D09105D9F08330910591F1019709F04CC04C
S11309E085B1817085B985B1806C85B925B1809157
S11309F08401909185016AE070E00E94520F880F93
S1130A00991F8F71822B85B937C085B1817085B9E3
S1130A1085B1806A85B925B1809184019091850161
S1130A20CAE0D0E0BE010E94520FCB01BE010E9479
S1130A30520F880F991F8F71822B85B91DC085B104
S1130A40817085B985B1806685B925B180918401AD
S1130A509091850164E670E00E94520FCB016AE038
S1130A6070E00E94520F880F991F8F71822B85B9F5
S1130A7010924101109240018091400190914101F6
S1130A800196909341018093400111821082DF917D
S1130A90CF9108950F93CF93DF93EC0188819981CF
S1130AA0892B09F490C036998EC00E94C40A61E073
S1130AB081E00E945A0880E091E00E94080C0FEF48
S1130AC02AE040E36AE081E00E94C30960E181E03A
S1130AD00E945A0860916E0170916F01072E000CFC
S1130AE0880B990B0E941F0C89E091E00E94080C6E
S1130AF069E181E00E945A088EE091E00E94080CAE
S1130B006091600170916101072E000C880B990BB4
S1130B100E941F0C86E191E00E94080C62E281E0D1
S1130B200E945A0889E191E00E94080C60918201B8
S1130B307091830180E090E00E941F0C86E191E0B7
S1130B400E94080C62E384E10E945A0860917801D3
S1130B507091790180E090E00E941F0C83E291E0A3
S1130B600E94080C2CE340E46FE28DE00E94560AD8
S1130B702CE341E66FE287E50E94560A4F9908C0CC
S1130B8062E38AE50E945A0887E291E00E94080C19
S1130B904F9B15C04E9B09C062E38AE50E945A0828
S1130BA089E291E00E94080C0AC04E9908C062E3F1
S1130BB08AE50E945A088BE291E00E94080C19828F
S1130BC018820E942C08369B64C088819981892BE5
S1130BD009F45FC00E94C40A61E081E00E945A08DF
S1130BE080E091E00E94080C0FEF2AE040E36AE005
S1130BF081E00E94C3096EE18EE10E945A088DE2F1
S1130C0091E00E94080C68E288E20E945A08609110
S1130C1046017091470180914801909149010E94D9
S1130C20AA0D0E941F0C84E291E00E94080C63E06C
S1130C308AE50E945A086091580170915901809187
S1130C405A0190915B010E94AA0D0E941F0C87E338
S1130C5091E00E94080C60E18AE50E945A086091C4
S1130C604C0170914D0180914E0190914F010E9471
S1130C70AA0D0E941F0C8AE391E00E94080C2BE14C
S1130C804CE761E080E50E94560A198218820E94AE
S1130C902C08DF91CF910F910895CF93DF9380E0DB
S1130CA090E00E943C10EC019093790180937801CC
S1130CB082E090E00E943C10909383018093820133
S1130CC084E090E00E94341090E090934B01809374
S1130CD04A01DE0120EA36E841E050E00E94A70F15
S1130CE060937A0170937B0180937C0190937D01E2
S1130CF0DC01CB01BB0F880B982FDC0180937E01B4
S1130D0080937F018093800180938101DF91CF9153
S1130D100895609178017091790180E090E00E94DB
S1130D205010609182017091830182E090E00E94F2
S1130D30501060914A0184E090E00E9442100895AE
S1130D408EEF84B98BE08AB988EB87B98BB1846064
S1130D508BB98BB180618BB98BB180628BB985B152
S1130D60816085B98DB381608DBB8DB382608DBB8D
S1130D70E9E6F0E0808182608083808188608083FE
S1130D8084E08093680090E390936D0092E094BDBA
S1130D9023E025BD29EF27BD90936E0090E4909346
S1130DA07C009FEE90937A0010927B0098E39093DE
S1130DB07E0093E29093B0008093B10084E480932A
S1130DC0810080E280936F0087E690E00E947301C7
S1130DD078940E944D060E94630820E048E065E094
S1130DE088E690E00E94D80A0E94C80A80916601B1
S1130DF08093B40084E491E00E94DB0482E491E0F7
S1130E000E944A058091440190914501892B71F318
S1130E100E948906EBCF669566956695E82FF0E00B
S1130E2080E8689FE00DF11D1124E157FE4F4083D7
S1130E300895669566956695E82FF0E080E8689FCA
S1130E40E00DF11D1124E157FE4F80810895CF93E9
S1130E50DF93DC01CB01FA0120E32287218720877D
S1130E60278326832583248323832283218320834A
S1130E70BB234CF4B095A095909581959F4FAF4FAF
S1130E80BF4F31E008C030E006C09A5CAA49BB43BA
S1130E9021812F5F218381152AEC92072AE9A20779
S1130EA02BE3B20794F706C0915EA54FB5402281AB
S1130EB02F5F2283811521EE920725EFA20725E0FB
S1130EC0B20794F707C080589649A849B10923810D
S1130ED02F5F2383803826E9920728E9A207B1050A
S1130EE094F707C080549244AF40B10924812F5F26
S1130EF02483803422E492072FE0A207B10594F7FB
S1130F0007C0805A9648A140B10925812F5F2583E7
S1130F10803A26E8920721E0A207B10594F707C0BA
S1130F2080519742A109B10926812F5F2683803120
S1130F3027E29207A105B1059CF707C0885E93409C
S1130F40A109B10927812F5F2783883E23E09207F7
S1130F50A105B1059CF707C084569109A109B109FF
S1130F6020852F5F208784369105A105B105A4F75C
S1130F7006C00A97A109B10921852F5F21878A300C
S1130F809105A105B105ACF706C00197A109B10906
S1130F9022852F5F2287181619061A061B06ACF342
S1130FA020E001C02F5FDF01A20FB11D8C918033BF
S1130FB0C9F3332331F02150DF01A20FB11D8DE2BB
S1130FC08C934AE0421B30E00DC0832F90E0EF0188
S1130FD0C80FD91F820F911DDF01A80FB91F8C9173
S1130FE088833F5F431788F7E30FF11D1082DF9179
S1130FF0CF9108950F931F93CF93DF93C82F8B0145
S1131000D42F0E946C0C88E70E947E0C8C2F0E94C7
S11310107E0CC0E007C0F801EC0FF11D80810E9436
S11310207E0CCF5FCD17B8F30E94760CDF91CF9181
S11310301F910F910895CF93DF931F92CDB7DEB721
S1131040898341E0BE016F5F7F4F80E00E94FA0711
S11310500F90DF91CF910895CF9381E20E941B08F6
S113106080E00E941B088FE70E941B0882E20E9416
S11310701B0880E00E941B0887E00E941B08C0E058
S11310800BC080E1C89FB001112461577E4F40E13D
S113109080E40E94FA07CF5FC03498F3CF9108959B
S11310A0882314F0809386010895803410F480938B
S11310B087010895CF93C62F0E9450088C2F0E9459
S11310C05508CF9108950E94530C8EEA0E941B0884
S11310D085ED0E941B0880EF0E941B0888EA0E948D
S11310E01B088FE30E941B0883ED0E941B0880E00D
S11310F00E941B088DE80E941B0884E10E941B08C3
S113110080E40E941B0880E20E941B0880E00E9489
S11311101B0881EA0E941B0888EC0E941B088AEDC8
S11311200E941B0882E10E941B0881E80E941B08A0
S11311308FEF0E941B0889ED0E941B0881EF0E941B
S11311401B088BED0E941B0880E20E941B0884EAA6
S11311500E941B0886EA0E941B088EE20E941B085C
S11311608FEA0E941B0860E080E00E945A08E6E8CB
S1131170F1E086EA82831782168215821182108238
S11311800895FF920F931F93CF93DF93C62F142FCD
S11311900E945A08E6E8F1E0F180D0816F2D8D2F8E
S11311A00E9419071F3F79F4C77001E010E020E0A6
S11311B030E004C0000F111F221F331FCA95D2F75D
S11311C0482F402B0FC0C77001E010E020E030E052
S11311D004C0000F111F221F331FCA95D2F70095B8
S11311E0402F48236F2D8D2F0E940B07DF91CF9145
S11311F01F910F91FF9008956F927F928F929F920B
S1131200AF92BF92CF92DF92EF92FF920F931F9310
S1131210CF93DF9388230CF4A7C044230CF4A4C019
S1131220603408F0A1C0203408F09EC0261B992425
S11312309394920E481BD1E0D40F962F9770162FDB
S1131240191BE92CF12C28E030E0291B3109E216A6
S1131250F3067CF428E030E02E193F094FEF50E00C
S11312606A0102C0D594C7942A95E2F72C2DB92CB3
S113127004C028E0B22EB91A2FEFA82EC22ED12C0A
S113128002C0CC0CDD1C9A95E2F76C2C612F0E94F5
S11312905A08812C19C0E6E8F1E07180C081672DFD
S11312A08C2F0E9419070F3F19F4462D482B03C0B9
S11312B04C2D4095482381E08C0F80938601672D47
S11312C08C2F0E940B0783948D1628F316C088E098
S11312D0B80E185F612F8A2D0E945A08C0E00BC017
S11312E0E6E8F1E06181808191E0980F9083402FDE
S11312F00E940B07CF5FCD1798F38B2D90E09C01D4
S1131300285F3F4FE216F30614F7B91468F5E81A9C
S1131310F90A8FEF90E002C0880F991FEA94E2F770
S1131320E82EE09468E0610F8A2D0E945A0810E0CC
S113133019C0E6E8F1E0F180C0816F2D8C2F0E9486
S113134019070F3F19F44E2D482B03C04E2D40951D
S1131350482381E08C0F809386016F2D8C2F0E948F
S11313600B071F5F1D1728F3DF91CF911F910F917A
S1131370FF90EF90DF90CF90BF90AF909F908F90B1
S11313807F906F9008958F929F92AF92BF92CF9269
S1131390DF92EF92FF920F931F93CF93DF93C82FA7
S11313A0D62F142F88230CF474C044230CF471C07A
S11313B0603408F06EC0203408F06BC084130AC097
S11313C0261710F4D22F262F4C2F6D2F8C2F0E940E
S11313D0FC085FC062130EC0481748F4C42F182FCE
S11313E006C0402F6D2F8C2F0E94C108CF5F1C17A1
S11313F0C0F74FC0261728F4C62ED12CC21AD10824
S113140004C0C22ED12CC61AD1081C1728F4AC2E45
S1131410B12CA11AB10804C0A12EB12CAC1AB10888
S1131420AC14BD0434F4812F122F282F8C2FCD2F10
S1131430D82F1C1730F48D2FD22F282F8C2FC12F8B
S1131440182F912E9C1AD21718F4E22EED1A02C00E
S1131450ED2EE21AF92CF694D21718F4882483940A
S113146016C088248A9413C0AC14BD0434F4402FED
S11314706C2F8D2F0E94C10805C0402F6D2F8C2F1B
S11314800E94C108FE1812F4D80DF90CCF5F1C1786
S113149058F7DF91CF911F910F91FF90EF90DF905C
S11314A0CF90BF90AF909F908F900895DF92EF926E
S11314B0FF920F931F93CF93DF9388230CF445C0BF
S11314C044230CF442C0603408F03FC02034E8F5F3
S11314D0D02F122FD42EF62EE82E481718F0042FF2
S11314E0C82F09C0082FC42F06C04D2F6F2D8C2F75
S11314F00E94C108CF5F0C17C0F7DE1418F00D2D41
S1131500CE2D09C00E2DCD2D06C04D2F612F8C2F51
S11315100E94C108CF5F0C17C0F71F1518F0212FC8
S11315206F2D02C02F2D612F0D2F4E2D8E2D0E9459
S1131530FC081F1518F0212F6F2D02C02F2D612FCD
S11315400D2F4D2D8D2D0E94FC08DF91CF911F9101
S11315500F91FF90EF90DF9008951F93CF93DF9347
S1131560182FD0E00BC0412F6D2F8C2F0E940B073A
S1131570CF5F01C0C0E0CC23B4F7D85FD034D0F340
S1131580DF91CF911F91089580E00E94AD0A0895E4
S113159080918801873A21F486EA8093880103C008
S11315A087EA80938801809188010E941B0808952E
S11315B06623E4F04034D0F42230C0F4E6E8F1E0ED
S11315C0948383836583468350E041505109CA0163
S11315D099230CF4079695958795959587959595F8
S11315E08795E6E8F1E08F5F8783208708954F921F
S11315F05F926F927F928F929F92AF92BF92CF929F
S1131600DF92EF92FF920F931F93CF93DF93A6E89D
S1131610B1E05C9011964C901197805215969C9174
S1131620159717962C911797929F900111242F5F6D
S11316303F4F829FA001839F500D11241396ED917B
S1131640FC9114975A018FEFA81AB80AE40FF51FFA
S11316507490842D8770982E642C812C5FC0662D25
S1131660852D0E945A087501E80CF11C670181E080
S1131670C81AD10810E041C08091890190918A0173
S1131680FC01EE0DFF1D2491492D50E030E0092CA2
S113169002C0220F331F0A94E2F7022F8820A1F020
S11316A0FC01EC0DFD1DE49188E090E0841B950B9A
S11316B0F0E002C0F595E7958A95E2F70E2F022B2C
S11316C080918D01C80ED11C80918E01813039F436
S11316D0E6E8F1E0618180810E941907082BC6E8E1
S11316E0D1E06981888191E0980F9883402F0E940E
S11316F00B078F81E80EF11C1F5F171508F4BCCF90
S113170080918E01811107C0E6E8F1E040E061813B
S113171080810E940B0788E0680E839480918D017C
S1131720881608F49CCF242D26952695269530E01E
S113173080918C0190E0840D911D0197AC0112F40D
S1131740495F5F4F559547955595479555954795ED
S11317502417350709F445C08FE3861508F441C002
S1131760662D852D0E945A08A80CB11C81E0A81A88
S1131770B10800E029C0C6E8D1E0F98018816F2DD6
S1131780812F0E941907EB81FC81EA0DFB1D449116
S113179028E030E02919310950E002C055954795F9
S11317A02A95E2F7482B9885913009F4482BC6E82E
S11317B0D1E081E0810F88836F2D812F0E940B0778
S11317C08F81A80EB11C0F5F0715A8F280918E01BE
S11317D0811107C0E6E8F1E040E0618180810E9468
S11317E00B07852D870D642D8F5F0E945A08DF91AA
S11317F0CF911F910F91FF90EF90DF90CF90BF900A
S1131800AF909F908F907F906F905F904F900895CE
S1131810CF93DF93EC010DC0E6E8F1E090812581E0
S113182030E0290F311D2038310534F421960E940F
S1131830F70A88818111F0CFDF91CF9108950F933A
S11318401F93CF93DF93CDB7DEB72C970FB6F894E1
S1131850DEBF0FBECDBF611571058105910521F471
S113186080E30E94F70A14C061157105810520E820
S1131870920771F08E010F5F1F4F2CE0F801119257
S11318802A95E9F7A8010E942707C8010E94080CBD
S11318902C960FB6F894DEBF0FBECDBFDF91CF916B
S11318A01F910F91089587B1806187B987B18062D4
S11318B087B988B1806188B988B1806288B910928B
S11318C0B90088E48093B80084E08093BC00089554
S11318D08091B900887F089584EA8093BC00809148
S11318E0BC008823E4F70E94680C089585ED80937A
S11318F0BC008091BC0084FDFCCF08958093BB00A4
S113190084E88093BC008091BC008823E4F70E94A3
S1131910680C08955058BB27AA270E94A20C0C9467
S1131920A60E0E94980E38F00E949F0E20F039F403
S11319309F3F19F426F40C94850E0EF4E095E7FB12
S11319400C947F0EE92F0E94B70E58F3BA17620762
S113195073078407950720F079F4A6F50C94D90E43
S11319600EF4E0950B2EBA2FA02D0B01B9019001B6
S11319700C01CA01A0011124FF27591B99F0593FFA
S113198050F4503E68F11A16F040A22F232F342F42
S11319904427585FF3CF469537952795A795F04090
S11319A05395C9F77EF41F16BA0B620B730B840BA5
S11319B0BAF09150A1F0FF0FBB1F661F771F881F5D
S11319C0C2F70EC0BA0F621F731F841F48F48795B5
S11319D077956795B795F7959E3F08F0B0CF9395A7
S11319E0880F08F09927EE0F9795879508950E9420
S11319F05B0E08F481E008950E94100D0C94A60E6D
S1131A000E949F0E58F00E94980E40F029F45F3F08
S1131A1029F00C947F0E51110C94DA0E0C94850E5F
S1131A200E94B70E68F39923B1F3552391F3951BE4
S1131A30550BBB27AA2762177307840738F09F5FEB
S1131A405F4F220F331F441FAA1FA9F335D00E2E58
S1131A503AF0E0E832D091505040E695001CCAF7C5
S1131A602BD0FE2F29D0660F771F881FBB1F261788
S1131A7037074807AB07B0E809F0BB0B802DBF015F
S1131A80FF2793585F4F3AF09E3F510578F00C942E
S1131A907F0E0C94DA0E5F3FE4F3983ED4F3869500
S1131AA077956795B795F7959F5FC9F7880F911D4F
S1131AB09695879597F90895E1E0660F771F881F3B
S1131AC0BB1F621773078407BA0720F0621B730BEE
S1131AD0840BBA0BEE1F88F7E0950895BEE304D09B
S1131AE008F490E80895BFE322273327A9010E9450
S1131AF0BF0E60F19F5748F1B91740F1BFE3B91B1E
S1131B009927B8503AF4660F771F881F991FB39529
S1131B10D2F316C0B8504AF0232F342F452F562F36
S1131B20672F782F8827B850BAF7B85F49F08695A1
S1131B30779567955795479537952795BA95B9F74A
S1131B4016F40E94880E88940895889460E070E0EA
S1131B50CB0108950E94B10D6894B1110C94DA0E72
S1131B6008950E94BF0E88F09F5798F0B92F9927C7
S1131B70B751B0F0E1F0660F771F881F991F1AF074
S1131B80BA95C9F714C0B13091F00E94D90EB1E0F2
S1131B9008950C94D90E672F782F8827B85F39F0F1
S1131BA0B93FCCF3869577956795B395D9F73EF40D
S1131BB090958095709561957F4F8F4F9F4F0895B5
S1131BC0E89409C097FB3EF49095809570956195D3
S1131BD07F4F8F4F9F4F9923A9F0F92F96E9BB2789
S1131BE09395F695879577956795B795F111F8CF05
S1131BF0FAF4BB0F11F460FF1BC06F5F7F4F8F4F70
S1131C009F4F16C0882311F096E911C0772321F065
S1131C109EE8872F762F05C0662371F096E8862FFD
S1131C2070E060E02AF09A95660F771F881FDAF754
S1131C30880F9695879597F90895E894F92F96EB70
S1131C40FF2381F0121613061406440B9395F695A0
S1131C5087957795679557954040FF23B9F71BC043
S1131C6099270895882351F49850D2F7872B762F1B
S1131C70652F542F432F322F20E0B1F31216130691
S1131C801406440B88233AF09A95440F551F661F97
S1131C90771F881FCAF755234AF4440F551F11F4C0
S1131CA060FF04C06F5F7F4F8F4F9F4F880F9695E3
S1131CB0879597F90895990F0008550FAA0BE0E846
S1131CC0FEEF16161706E807F907C0F012161306FA
S1131CD0E407F50798F0621B730B840B950B39F43A
S1131CE00A2661F0232B242B252B21F408950A26A0
S1131CF009F4A140A6958FEF811D811D089597F9E0
S1131D009F6780E870E060E008959FEF80EC08959D
S1131D109095809570956095509540953095219556
S1131D203F4F4F4F5F4F6F4F7F4F8F4F9F4F0895E0
S1131D3000240A94161617061806090608950024A6
S1131D400A9412161306140605060895092E039420
S1131D50000C11F4882352F0BB0F40F4BF2B11F494
S1131D6060FF04C06F5F7F4F8F4F9F4F089557FDF3
S1131D709058440F551F59F05F3F71F04795880FF5
S1131D8097FB991F61F09F3F79F08795089512168C
S1131D9013061406551FF2CF4695F1DF08C0161638
S1131DA017061806991FF1CF8695710561050894E9
S1131DB00895E894BB2766277727CB0197F9089500
S1131DC00E945B0E08F48FEF08950E94F80E0C94A5
S1131DD0A60E0E94980E38F00E949F0E20F09523C4
S1131DE011F00C947F0E0C94850E11240C94DA0ED1
S1131DF00E94B70E70F3959FC1F3950F50E0551FE5
S1131E00629FF001729FBB27F00DB11D639FAA274B
S1131E10F00DB11DAA1F649F6627B00DA11D661F9A
S1131E20829F2227B00DA11D621F739FB00DA11DBB
S1131E30621F839FA00D611D221F749F3327A00D75
S1131E40611D231F849F600D211D822F762F6A2F11
S1131E5011249F5750409AF0F1F088234AF0EE0F76
S1131E60FF1FBB1F661F771F881F91505040A9F7A3
S1131E709E3F510580F00C947F0E0C94DA0E5F3F68
S1131E80E4F3983ED4F3869577956795B795F795DF
S1131E90E7959F5FC1F7FE2B880F911D9695879557
S1131EA097F9089597FB072E16F4009407D077FD51
S1131EB009D00E94111007FC05D03EF4909581953D
S1131EC09F4F0895709561957F4F0895A1E21A2E52
S1131ED0AA1BBB1BFD010DC0AA1FBB1FEE1FFF1FCA
S1131EE0A217B307E407F50720F0A21BB30BE40B1A
S1131EF0F50B661F771F881F991F1A9469F7609561
S1131F007095809590959B01AC01BD01CF0108951A
S1131F10052E97FB1EF400940E949F0F57FD07D0D7
S1131F200E94660F07FC03D04EF40C949F0F50954B
S1131F304095309521953F4F4F4F5F4F08959095B1
S1131F408095709561957F4F8F4F9F4F08950E94A4
S1131F502510A59F900DB49F900DA49F800D911DF9
S1131F6011240895689401C0E8948F929F92CF93AE
S1131F70DF930E94C00FDF91CF919F908F900895BF
S1131F8088249924F401E401B0E49F93AA279A15C4
S1131F908B049C04ED05FE05CF05D007A10798F43A
S1131FA0AD2FDC2FCF2FFE2FE92D982C892E982FC3
S1131FB0872F762F652F542F432F322F2227B85087
S1131FC031F7BF9127C01B2EBF91BB27220F331FB0
S1131FD0441F551F661F771F881F991F881C991C53
S1131FE0EE1FFF1FCC1FDD1FAA1FBB1F8A149B04FB
S1131FF0EC05FD05CE05DF05A007B10748F08A18FA
S11320009B08EC09FD09CE09DF09A00BB10B216087
S11320101A94E1F62EF49401AF01BE01CD01000C37
S11320200895AA1BBB1B51E107C0AA1FBB1FA6171B
S1132030B70710F0A61BB70B881F991F5A95A9F76D
S113204080959095BC01CD010895A29FB001B39FE6
S1132050C001A39F700D811D1124911DB29F700DAD
S1132060811D1124911D0895F999FECF92BD81BD62
S1132070F89A992780B50895A8E1B0E042E050E0CD
S11320800C945710262FF999FECF1FBA92BD81BD2B
S113209020BD0FB6F894FA9AF99A0FBE01960895E6
S11320A00E944210272F0C944310DC01CB01FC0149
S11320B0F999FECF06C0F2BDE1BDF89A319600B49D
S11120C00D9241505040B8F70895F894FFCFA8
S11320CE4C41534420436172002072706D00536F73
S11320DE6E61723A2000636D00442E20706E657539
S11320EE3A2000204B6D005000520044004175749C
S11120FE6F6E6F6D69610020250020430000A5
S9030000FC
